:020000040000FA
:100000000C9481030C94A9030C94A9030C94A903E8
:100010000C94A9030C94A9030C94A9030C94A903B0
:100020000C94A9030C94A9030C94A9030C94A903A0
:100030000C94A9030C94A9030C94A9030C94A90390
:100040000C94BE050C94A9030C942E060C9408067F
:100050000C94A9030C94A9030C94A9030C94A90370
:100060000C94A9030C94A9036364696E6F70737593
:1000700078585B0000000000000000000000000055
:100080003000300030003078003000307800202020
:1000900052535420202020202020202020202020C7
:1000A0002020202020202D3E20536F667420526592
:1000B000736574204D43550020203A313030313083
:1000C000302E2E2E202020202020202020202020F6
:1000D0002D3E20496E74656C20484558205265635A
:1000E0006F7264202852414D206C6F6164657229E3
:1000F0000020205745203C616464725F6865783E4B
:10010000203C76616C5F683E202D3E2057726974FA
:100110006520454550524F4D20627974650020207E
:100120005245203C616464725F6865783E202020FF
:100130002020202020202D3E20526561642045454E
:1001400050524F4D20627974650020205746203C64
:10015000616464725F6865783E203C76616C5F68BC
:100160003E202D3E20577269746520466C6173688D
:10017000206279746520284F707469626F6F7420F3
:1001800053504D290020204446203C616464725F36
:100190006865783E205B6C656E5F685D202D3E2053
:1001A00044756D7020466C617368202850524F472B
:1001B0004D454D2920626C6F636B00202044203C2C
:1001C000616464725F6865783E205B6C656E5F6831
:1001D00065785D2D3E2044756D70205352414D2051
:1001E0006D656D6F727920626C6F636B00202057B4
:1001F000203C616464725F6865783E203C76616C87
:100200005F6865783E2D3E205772697465205352B1
:10021000414D2F53465220627974650020205220B0
:100220003C616464725F6865783E20202020202055
:10023000202020202D3E2052656164205352414DE4
:100240002F534652206279746500436F6D6D616E65
:1002500064733A000A3D3D3D204156524D6F6E2079
:1002600076302E342D4D696E69436F7265203D3DA9
:100270003D000A40200020627974657320746F206D
:1002800052414D2000484558204F4B3A2057726F3D
:1002900074652000526573657474696E67204D4300
:1002A000552E2E2E0020746F2052414D20004F4BB2
:1002B000212057726F74652000203D200020746F4C
:1002C00020466C61736820004F4B2120466C61739F
:1002D000682057726F7465200020202020200020A5
:1002E000003A20000A40200000000000000000004A
:1002F00000000000000000000000000000000000FE
:1003000000000000000000000000000000000000ED
:1003100000000000000000000000000000000000DD
:1003200000000000000000000000000000000000CD
:10070000600611241FBECFEFD8E0DEBFCDBF22E0D0
:10071000A2E4B1E001C01D92A93FB207E1F711E0E8
:10072000A0E0B1E0ECE4FCE102C005900D92A2343F
:10073000B107D9F713E0C1E8D3E004C02197FE0167
:100740000E94EB0AC038D107C9F70E949F060C949B
:10075000240E0C940000AF92BF92CF92DF92EF92E2
:10076000FF920F931F93CF93DF936C017B018B015B
:10077000040F151FEB015E01AE18BF08C017D107AB
:1007800059F06991D601ED91FC910190F081E02D35
:10079000C6010995892B79F7C501DF91CF911F918A
:1007A0000F91FF90EF90DF90CF90BF90AF900895A2
:1007B000FC01538D448D252F30E0842F90E0821B67
:1007C000930B541710F0CF96089501970895FC01EC
:1007D000918D828D981761F0A28DAE0FBF2FB11D44
:1007E0005D968C91928D9F5F9F73928F90E008959C
:1007F0008FEF9FEF0895FC01918D828D981731F056
:10080000828DE80FF11D858D90E008958FEF9FEFA9
:100810000895FC01918D228D892F90E0805C9F4F7F
:10082000821B91098F73992708958CEC91E00E94A7
:10083000090421E0892B09F420E0822F089580E04B
:1008400090E0892B29F00E94150481110C9400007E
:100850000895FC01A48DA80FB92FB11DA35ABF4F55
:100860002C91848D90E001968F739927848FA689AF
:10087000B7892C93A089B1898C91837080648C9303
:10088000938D848D981306C00288F389E02D8081B2
:100890008F7D80830895EF92FF920F931F93CF93E4
:1008A000DF93EC0181E0888F9B8D8C8D98131AC0AB
:1008B000E889F989808185FF15C09FB7F894EE8992
:1008C000FF896083E889F9898081837080648083EF
:1008D0009FBF81E090E0DF91CF911F910F91FF903A
:1008E000EF900895F62E0B8D10E00F5F1F4F0F73E2
:1008F0001127E02E8C8D8E110CC00FB607FCFACF9D
:10090000E889F989808185FFF5CFCE010E9429040D
:10091000F1CFEB8DEC0FFD2FF11DE35AFF4FF0826D
:100920009FB7F8940B8FEA89FB8980818062CFCFD3
:100930000F931F93CF93DF938C01D0E0C0E0F801B9
:10094000EC0FFD1F6491662341F08CEC91E00E9456
:100950004B04892B11F02196F2CFCE01DF91CF917C
:100960001F910F910895CF93DF93EC01888D882319
:10097000B9F0AA89BB89E889F9898C9185FD03C002
:10098000808186FD0DC00FB607FCF7CF8C9185FFE7
:10099000F2CF808185FFEDCFCE010E942904E9CFFF
:1009A000DF91CF9108958F929F92AF92BF920F9354
:1009B0001F93CF93DF93CDB7DEB7A1970FB6F8940F
:1009C000DEBF0FBECDBF19A2423008F44AE08E014F
:1009D0000F5D1F4F842E912CB12CA12CA5019401E9
:1009E0000E94780AE62FB901CA01EA3044F5E05DB9
:1009F000D801EE938D01232B242B252B79F790E042
:100A000080E0109769F0FD0101900020E9F731972F
:100A1000AF014A1B5B0BBD018CEC91E00E94AB0364
:100A2000A1960FB6F894DEBF0FBECDBFDF91CF9178
:100A30001F910F91BF90AF909F908F900895E95CA8
:100A4000D7CF42E050E062E171E08CEC91E00C9491
:100A5000AB03CF93DF930E949804EC010E94210521
:100A60008C0F9D1FDF91CF91089584E592E00E9445
:100A700029058AE492E00E9429058CE192E00E9417
:100A800029058DEE91E00E9429058BEB91E00E94F3
:100A9000290585E891E00E9429058AE491E00E94F9
:100AA00029058EE191E00E94290581EF90E00E94E6
:100AB000290588EB90E00E9429058EE890E00C94CF
:100AC0002905CF93C82F8BE890E00E949804C0318D
:100AD00020F489E890E00E9498046C2F70E090E088
:100AE00080E040E1CF910C94D304CF93DF93EC01ED
:100AF00086E890E00E949804C11580E1D80798F438
:100B000084E890E00E949804CF3FD10509F058F4A2
:100B100082E890E00E949804C031D10520F480E87A
:100B200090E00E949804BE0190E080E040E1DF91F7
:100B3000CF910C94D304CF93DF9300D01F92CDB705
:100B4000DEB71B82FC012081298381818A8340E1F9
:100B500050E070E060E0CE0101960E941009862FFF
:100B60000F900F900F90DF91CF91089540E150E0EA
:100B700070E060E00E941009CB0108951F920F926F
:100B80000FB60F9211242F933F938F939F93AF93A0
:100B9000BF938091C8019091C901A091CA01B09101
:100BA000CB013091C70123E0230F2D3768F126E8F0
:100BB000230F0296A11DB11D2093C7018093C80188
:100BC0009093C901A093CA01B093CB018091C30156
:100BD0009091C401A091C501B091C6010196A11DDB
:100BE000B11D8093C3019093C401A093C501B0933C
:100BF000C601BF91AF919F918F913F912F910F901F
:100C00000FBE0F901F9018950196A11DB11DD4CF56
:100C10001F920F920FB60F9211242F933F934F9371
:100C20005F936F937F938F939F93AF93BF93EF9354
:100C3000FF938CEC91E00E942904FF91EF91BF910A
:100C4000AF919F918F917F916F915F914F913F9164
:100C50002F910F900FBE0F901F9018951F920F921B
:100C60000FB60F9211242F938F939F93EF93FF93BF
:100C7000E091DC01F091DD018081E091E201F091F1
:100C8000E30182FD1BC090818091E5018F5F8F732E
:100C90002091E601821741F0E091E501F0E0E45394
:100CA000FE4F958F8093E501FF91EF919F918F917A
:100CB0002F910F900FBE0F901F9018958081F4CF49
:100CC000ECECF1E01382128288EE93E0A0E0B0E059
:100CD00084839583A683B78384E091E091838083A6
:100CE00085EC90E09587848784EC90E097878687F1
:100CF00080EC90E0918B808B81EC90E0938B828BE9
:100D000082EC90E0958B848B86EC90E0978B868BC1
:100D1000118E128E138E148EE9EEF2E080E093E0D5
:100D20009183808380E094E09783868389E692E0D4
:100D30009187808780E890E0938782870895CF939A
:100D4000DF93CDB7DEB7A0970FB6F894DEBF0FBE26
:100D5000CDBF789484B5836084BD85B5836085BD3F
:100D600080916E00816080936E0092E0909381008C
:100D700080918100816080938100809180008160FA
:100D8000809380008091B10084608093B100809155
:100D9000B00081608093B00087E880937A00109261
:100DA000C100E091DC01F091DD019083E091D80178
:100DB000F091D9011082E091DA01F091DB0183E337
:100DC00080831092E401E091E001F091E10186E07E
:100DD0008083E091DE01F091DF018081886980836A
:100DE000E091DE01F091DF0180818F7D80830E94A0
:100DF000350582E792E00E9498047E0121E1E20E2F
:100E0000F11CCE0101966C018EE1482E81E0582E36
:100E10008CEC91E00E940904181619060CF0BBC175
:100E20008CEC91E00E94E703E091C2018A3019F056
:100E30008D3009F0A4C1EE2359F3F0E0EE5BFE4FD4
:100E4000108265E171E082E491E00E94390A009726
:100E500009F48EC18C01FC012191CF012032D1F324
:100E60002930C1F3F80101900020E9F731970E17FE
:100E70001F0709F448C02291203239F037EF320FB2
:100E8000323018F02D3009F093C11082F0CF85E890
:100E900092E00E949804632D70E090E080E04AE0C8
:100EA0000E94D30486E792E00E949804C3010E9446
:100EB000750521C167E171E0C8010E94F10A892B23
:100EC00099F484E992E00E9429058CEC91E00E945B
:100ED000B30488E198E00FB6F894A8958093600079
:100EE0000FBE90936000FFCFF70120E111922A9589
:100EF000E9F7F60120E111922A95E9F73FE3B312F1
:100F000007C00E94350565E171E090E080E09DCF6B
:100F100042E050E06BE171E0C8010E94040B892BB4
:100F200009F05AC0DF92CF92FF92EF925F924F92F8
:100F30001F930F930E941C0B8C010FB6F894DEBF19
:100F40000FBECDBF18161906F4F6C7010E94B605EC
:100F50001C010230110581F100E110E0B12CA12C3F
:100F600031016A0C7B1CC3010E94750581EE92E081
:100F70000E949804912C812CC501880D991D801721
:100F8000910738F5F301E80DF91D84910E94610580
:100F90008FED92E00E949804EFEF8E1A9E0AF8E01F
:100FA0008F16910449F70E94210528E0A20EB11C7A
:100FB000A016B106A8F2A7CFC6010E94B6050097F9
:100FC00059F28C01013091E0190740F200E011E084
:100FD000C5CF89ED92E0DECF42E050E06CE271E0F7
:100FE000C8010E94040B892B09F054C0DF92CF92F4
:100FF000FF92EF925F924F921F930F930E941C0BF0
:101000000FB6F894DEBF0FBECDBF029709F07BCFBD
:10101000C7010E94B6055C01C6010E94B605982E64
:1010200085010050134000784091F3025091F40282
:101030006091E9027091EA02600F711F8091F102E4
:101040009091F2020E94300AC5018F779927E091B2
:10105000F102F091F202E80FF91F90826091E9022B
:101060007091EA02600F711F8091F1029091F2027B
:10107000F894EEEFFFE30995789488EC92E00E94F3
:101080009804892D0E9461058DEB92E00E949804DE
:10109000C5010DCF42E050E06FE271E0C8010E944F
:1010A000040B892B39F062E371E0C8010E94F10A58
:1010B000892B21F5FF92EF9224E331E03F932F93A8
:1010C0001F930F930E941C0B0F900F900F900F9087
:1010D0000F900F90019709F016CFC7010E94B60537
:1010E0008C010E94750589EB92E00E949804F8013A
:1010F00080810E9461050E94210505CF42E050E0F9
:101100006DE371E0C8010E94040B892B41F060E49B
:1011100071E0C8010E94F10A892B09F0F4CEDF9238
:10112000CF92FF92EF925F924F921F930F930E9484
:101130001C0B0FB6F894DEBF0FBECDBF029709F0AF
:10114000E2CEC7010E94B6058C01C6010E94B60519
:10115000B82EF80180838EEA92E00E9498048B2DCD
:101160000E94610585EA92E00E949804C8019FCE22
:101170001092C20184EE92E00E94980449CEEF37AB
:1011800008F046CE91E09E0F9093C201F0E0EE5B36
:10119000FE4F80833DCE80E090E0892B09F438CE6D
:1011A0000E941504882309F42FCE0E9400002CCE43
:1011B000F801B080FAE3BF127DCEF8010190002063
:1011C000E9F73197E01BF10BEB3008F49CCE0E945D
:1011D0009B05382EC80103960E949B05B82EC801B6
:1011E00005960E949B05682EC80107960E949B05E4
:1011F000811189CE7B2C075F1F4FB12CA12CA3142A
:1012000008F045CE43018A0C9B1CC8010E949B0537
:10121000F4018083FFEFAF1ABF0A0E5F1F4FEFCFBD
:10122000B0E0A0E0E6E1F9E00C94A60A5C016B01F5
:101230007A016115710519F0FB0191838083E11436
:10124000F10451F0C7010297839730F040E030E09D
:1012500020E090E072C05E01E5012196F501108169
:10126000812F90E00E94270A892BA9F71D3201F5F2
:101270002196F501118101E0E114F10409F4DAC0CD
:10128000F0E1EF16F10409F082C0103359F48881BF
:101290008F7D883509F076C0198122960260F0E1D1
:1012A000EF2EF12C812C912CA12C88E0B82E8CC033
:1012B0001B3221F4E5012296F501118100E0DCCF1B
:1012C000EAE0EE16F10409F4BBC0F0E1EF16F10418
:1012D00009F06DC0E7CF78E0E72EF12C812C912C3E
:1012E000A12C60E1B62E70C03FE9310F3A3128F4ED
:1012F00039EA332E80C021E09AC0302F3170C114FA
:10130000D10431F0222309F12197F601D183C08362
:1013100027FF21C060E070E080E090E8311104C058
:101320006FEF7FEF8FEF9FE722E230E03093F8021C
:101330002093F702462F372F282F642F732F822FE9
:10134000CDB7DEB7E1E10C94C20A01FF04C02297D9
:10135000F601D183C083332341F090958095709539
:1013600061957F4F8F4F9F4FE5CF97FFE3CF82E28D
:1013700090E09093F8028093F7026FEF7FEF8FEF8A
:101380009FE7D8CF10E3E114F10409F4A4CF28E0DB
:10139000E216F10409F4A2CF0CF092CF812C912C2B
:1013A000A12CE0E4BE2E82E0E816F10469F060E0D2
:1013B00070E080E090E897010F2C000C440B550B77
:1013C0000E94780A49015A0120E060E070E0CB01F8
:1013D00027010F2C000C66087708FE0150ED352E12
:1013E000310E39E0331540F43FEB310F3A3108F05C
:1013F0007BCF49EC342E310E3E141F040CF07DCF10
:1014000027FD15C086169706A806B90678F0A30131
:1014100092010E94680A630D711D811D911D61304A
:101420007105810520E8920708F465CF2FEF21961A
:101430001081D3CF103309F42ACF2AE0E22EF12C09
:101440009CEC892E982CA82C9CE0B92EBDCF911134
:101450000C94650A803219F089508550C8F70895B8
:10146000FB01DC0102C005900D9241505040D8F7BD
:10147000089545EF52E00E943E0A0895FA01A191B5
:10148000B081009719F41097E1F0CD01DC01CD0196
:101490000D90002011F4C00113C0FB012191222303
:1014A00019F02015D9F7F3CFFB012191201519F47C
:1014B0001E92119606C02223C1F70D900020A1F7BD
:1014C000D001FA01A193B083089599278827089540
:1014D000DB018F939F930E949A0ABF91AF91A29FC5
:1014E000800D911DA39F900DB29F900D1124089522
:1014F000A1E21A2EAA1BBB1BFD010DC0AA1FBB1F18
:10150000EE1FFF1FA217B307E407F50720F0A21B89
:10151000B30BE40BF50B661F771F881F991F1A94F6
:1015200069F760957095809590959B01AC01BD0120
:10153000CF0108950E94DC0AA59F900DB49F900DE5
:10154000A49F800D911D112408952F923F924F92D8
:101550005F926F927F928F929F92AF92BF92CF9243
:10156000DF92EF92FF920F931F93CF93DF93CDB74C
:10157000DEB7CA1BDB0B0FB6F894DEBF0FBECDBFC4
:1015800009942A88398848885F846E847D848C8495
:101590009B84AA84B984C884DF80EE80FD800C819E
:1015A0001B81AA81B981CE0FD11D0FB6F894DEBF81
:1015B0000FBECDBFED010895A29FB001B39FC00142
:1015C000A39F700D811D1124911DB29F700D811D6F
:1015D0001124911D0895EE0FFF1F0590F491E02D49
:1015E0000994FB01DC018D9181341CF08B350CF4E6
:1015F000805E619161341CF06B350CF4605E861B7B
:10160000611189F3990B0895FB01DC0141505040B1
:1016100088F08D9181341CF08B350CF4805E6191E3
:1016200061341CF06B350CF4605E861B611171F344
:10163000990B0895881BFCCFAEE0B0E0E2E2FBE03E
:101640000C94B50A85E08C838B899C899A83898365
:10165000AE01495E5F4F6D897E89CE0101960E9481
:10166000C00C2E96E2E00C94D10A20FD09C0FC01CA
:1016700023FD05C022FF02C0738362835183408330
:10168000089544FD17C046FD1DC0DB01FC01AA0FF3
:10169000BB1FEE1FFF1F1094D1F76A0F7B1F8E1F19
:1016A0009F1F660F771F881F991F620F711D811D75
:1016B000911D089533E0660F771F881F991F3150E1
:1016C000D1F7F3CF34E0F7CF0F931F93CF93DF938E
:1016D0008C01C8010E94D00DEC0197FD08C00E944A
:1016E000270A892BB1F7B801CE010E940C0ECE015A
:1016F000DF91CF911F910F9108958F929F92AF929A
:10170000BF92EF92FF920F931F93CF93DF938C01C1
:10171000D62F7A01B22E0E94D00D9C0133272B3296
:10172000310529F02D323105A9F46894B7F8D1506C
:1017300061F480E0DF91CF911F910F91FF90EF90C6
:10174000BF90AF909F908F900895C8010E94D00DD8
:1017500097FDEFCFCB2DCD7F2B2D2073F9F4803368
:10176000E9F4AA24AA94AD0E89F0C8010E94D00D14
:1017700097FD0CC0282F2F7D283561F4C264D2500C
:1017800029F0C8010E94D00D97FF08C0812C912C30
:1017900054011BC0B6FE2BC0C260DA2D812C912CE7
:1017A000540120ED280F283028F1C4FD09C02A304B
:1017B00008F1C6FF05C02F7D3FEE320F3630C8F06E
:1017C000B8010E940C0EC1FFB4CFC7FF08C0B0948F
:1017D000A09490948094811C911CA11CB11C2C2F6E
:1017E000B501A401C7010E94350B81E0A3CFC261FE
:1017F000D4CF27504C2FC501B4010E94410B4B019F
:101800005C01C260D15009F3C8010E94D00D97FF5E
:10181000C8CFD9CFA0E2B0E0E0E1FCE00C94AA0A86
:101820005C01962E7A01CE0101966C0180E2F601F0
:1018300011928A95E9F7F501B381890130E020E042
:10184000712C812CA0E041E050E0F801B3FD8591BE
:10185000B3FF8191982F8F01811107C010E000E044
:10186000C801A096EDE00C94C60A8E3519F4211536
:10187000310541F1A21713064CF48D3549F18D3233
:1018800029F4811006C0882483941DC0882009F49F
:1018900064C0E92FE695E695E695EC0DFD2DF11D6A
:1018A000892F8770BA0101C0660F8A95EAF7808197
:1018B000682B6083791651F0971510F49F5FE9CF7C
:1018C0009150E7CFA1E02F5F3F4FBFCF812CFBCFDF
:1018D000882019F08E8180628E83AA2359F0F60148
:1018E0009E012F5D3F4F8081809580833196E21766
:1018F000F307C9F788248394C5010E94D00D97FD92
:1019000016C0E82FE695E695E695EC0DFD2DF11D48
:10191000208130E0AC014770552702C035952795EE
:101920004A95E2F720FD06C0B5010E940C0E882002
:1019300069F094CFE114F10429F0F7018083C70125
:1019400001967C019A94812C9110D6CFE114F10478
:1019500009F486CFF701108283CFE82FE695E6954C
:10196000E695EC0DFD2DF11D982F9770BA0101C081
:10197000660F9A95EAF79081692B6083782EA3CF42
:10198000B0E0A0E0E6ECFCE00C94A80A6C01EB01EE
:101990005A01FC0117821682512CF601E380FE01E8
:1019A000E3FC8591E3FE8191182FEF018823E9F094
:1019B00090E00E94270A892B21F0C6010E94640B47
:1019C000ECCF153241F4FE01E3FC1591E3FE1191D9
:1019D000EF01153269F4C6010E94D00D97FD8EC04B
:1019E0001817D9F2B6010E940C0E852D90E08AC01E
:1019F00000E01A3231F4E3FC1591E3FE1191EF019E
:101A000001E0F12C20ED210F2A3048F101FF37C011
:101A1000FF2059F31836B1F11C3609F43DC01123EB
:101A200021F3612F70E088E690E00E94C50D892BBC
:101A3000E1F2912C812C00FD06C0F501808091809F
:101A4000C50102965C011E3679F5F6014681578183
:101A500070E060E0202FC4010E94350B9ECF026031
:101A60006F2D70E090E080E040E20E94410BF62E86
:101A7000FE01E3FC1591E3FE1191EF01C3CFFF24BA
:101A8000FA94C8CFFE01E3FC1591E3FE1191EF013A
:101A9000183609F0C4CF08600460FE01E3FC15911C
:101AA000E3FE1191EF01BBCF1336C1F401FD02C07B
:101AB000FF24F394C6010E94D00D97FD1FC081142E
:101AC000910429F0F4018083C40101964C01FA9439
:101AD000F110F0CF00FD61CF53945FCF1B35B9F407
:101AE0009E01A4016F2DC6010E940A0CEC01892BF6
:101AF00089F7F6018381807309F477CF8FEF9FEF29
:101B0000511073CFCDB7DEB7EFE00C94C40AC60115
:101B10000E94640B97FDF2CF1F36A9F130F4143602
:101B200041F0193639F0006405C01337B9F01537A4
:101B3000D1F70062202FA4016F2DC6010E947D0BFA
:101B40008111C8CFD6CF8114910429F0F4016082AD
:101B5000C40101964C01FA94FF2071F0C6010E9465
:101B6000D00D3C0197FD08C00E94270A892B59F32C
:101B7000B601C3010E940C0E8114910409F4AACF8E
:101B8000F4011082A7CF0061D5CFFC0105900616A5
:101B900021F00020D9F7C00108953197CF010895B1
:101BA000CF93DF93EC012B8120FF1AC026FF0CC0DE
:101BB0002F7B2B838E819F8101969F838E838A81C9
:101BC00090E0DF91CF91089522FF18C0E881F9815C
:101BD0008081082E000C990B009729F420622B833A
:101BE0008FEF9FEFEECF3196F983E8832E813F810F
:101BF0002F5F3F4F3F832E839927E3CFEA85FB85F5
:101C0000099597FFF3CF2B81019621F080E2822B7B
:101C10008B83E6CF80E1FBCFFB01238120FF11C046
:101C200026FD0FC08F3F980771F082832F7D2064BF
:101C300023832681378121503109378326839927D1
:101C400008958FEF9FEF0895F894FFCF00000000F4
:101C50004B04AB03D803B3040904E703FB030D0AE9
:101C6000003B0052535400444600252A732025317E
:101C7000357320253135730057460052200052003D
:0E1C8000252A732025313573005720005700A8
:107E8000112424B614BE80E079D021FEEBC08EE030
:107E900075D0E0ECF0E0AFE7BFEF4899FECF9096E9
:107EA000489BFDCFB4831197F1F7B2E0B083B8E1FE
:107EB000B18352D0C82F823569F466D0E0E0FEE786
:107EC000A89583E093D091D0E058F109C8F787E7EF
:107ED0003CD0EFCF8D7FD9F44CD0D82FA0E0B1E0CB
:107EE0003BD08D93DA13FCCFA0E0B1E04DD0C111AF
:107EF0000CC0F2BDE1BD8D9180BDFA9AF99A319620
:107F0000F999FECFD150A9F7E2CF48D0E0CFC330E6
:107F100041F42FD0C82F38D0859117D0C150E1F748
:107F2000D6CFC13061F425D0C82F2ED0F2BDE1BD2F
:107F3000F89A80B50AD03196C150C1F7C8CFC13583
:107F400011F488E01BD020D0C2CF9091C00095FFE3
:107F5000FCCF8093C60008952D9A259A8091C00089
:107F600087FFFCCF84FD13C0A8958091C6002D9893
:107F70000895F2DFE82FF0DFF82FEECF98E190932D
:107F80006000809360000895E7DF803219F088E098
:107F9000F5DFFFCF80EAD9CFFB01DC01E07870E8A4
:107FA0007A0F9F01E0388EE7F80728F5309629F41C
:107FB0008FE38D938FEC8C93119790E045915D91B9
:107FC00045139160A713FACFF901A058B10990FFAA
:107FD00012C083E00BD081E00D901D9007D0329647
:107FE000A713FACFF90185E001D081E187BFE895B9
:107FF00017B610FCFDCF112408950319CDCFE7402B
:00000001FF
